// Cross-library: signed-tx bytes produced by ethbit must match viem
// (`signTransaction` from viem/accounts) for the same (tx, chain_id, key).
//
// Vectors generated by /tmp/viem-vectors/gen.mjs.

fn vt_h(s : String) -> Bytes {
  match @hex.decode(s) {
    Ok(b) => b
    Err(_) => abort("invalid hex literal")
  }
}

fn vt_b16(s : String) -> @bigint.BigInt {
  @bigint.BigInt::from_string(s, radix=16)
}

fn vt_make_legacy() -> @tx.TxLegacy {
  {
    nonce: b"",
    gas_price: vt_h("0x04a817c800"),
    gas_limit: vt_h("0x5208"),
    to: vt_h("0x52908400098527886E0F7030069857D2E4169EE7"),
    value: vt_h("0x0de0b6b3a7640000"),
    data: b"",
  }
}

fn vt_make_1559() -> @tx.Tx1559 {
  {
    chain_id: vt_h("0x01"),
    nonce: b"",
    max_priority_fee_per_gas: vt_h("0x59682f00"),
    max_fee_per_gas: vt_h("0x06fc23ac00"),
    gas_limit: vt_h("0x5208"),
    to: vt_h("0x52908400098527886E0F7030069857D2E4169EE7"),
    value: vt_h("0x0de0b6b3a7640000"),
    data: b"",
    access_list: [],
  }
}

let vt_sk_1 : @bigint.BigInt = vt_b16(
  "0000000000000000000000000000000000000000000000000000000000000001",
)

let vt_sk_test : @bigint.BigInt = vt_b16(
  "C9AFA9D845BA75166B5C215767B1D6934E50C3DB36E89B127B8A622B120F6721",
)

// ---- Legacy (EIP-155) ----

test "viem cross-check: legacy signed tx, sk=1, chain=1" {
  let bytes = @tx.sign_and_encode_legacy(
    vt_make_legacy(),
    vt_h("0x01"),
    vt_sk_1,
  )
  let want = vt_h(
    "0xf86c808504a817c8008252089452908400098527886e0f7030069857d2e4169ee7880de0b6b3a76400008026a0cdbfec70b0c5e0f0867a09f47037a63869663b4954d4d38409d18040d362fec7a04bcda9392c1bdc329000c3fa9042173332d59d4ed591dad8d34a8af101e4ced0",
  )
  assert_eq(bytes, want)
}

test "viem cross-check: legacy tx hash, sk=1, chain=1" {
  let sig = @tx.sign_legacy(vt_make_legacy(), vt_h("0x01"), vt_sk_1)
  let h = @tx.hash_signed_legacy(vt_make_legacy(), sig)
  let want = vt_h(
    "0xc7b2d0206e1a54dcbc71cfed437b02c8a85ec6c7aa6f861d66abe9f69e168b29",
  )
  assert_eq(h, want)
}

test "viem cross-check: legacy signed tx, sk=test, chain=1" {
  let bytes = @tx.sign_and_encode_legacy(
    vt_make_legacy(),
    vt_h("0x01"),
    vt_sk_test,
  )
  let want = vt_h(
    "0xf86c808504a817c8008252089452908400098527886e0f7030069857d2e4169ee7880de0b6b3a76400008026a074fe6bafef2a81170b9f2503bcc0f808c5a41764fe277d0887409c9fc175c35fa03fbebd1f5933fd509ca2f3955527ca44611d0ed4c9a0b81b02d7635c71b95b70",
  )
  assert_eq(bytes, want)
}

test "viem cross-check: legacy tx hash, sk=test, chain=1" {
  let sig = @tx.sign_legacy(vt_make_legacy(), vt_h("0x01"), vt_sk_test)
  let h = @tx.hash_signed_legacy(vt_make_legacy(), sig)
  let want = vt_h(
    "0x6d1cce88d7896f46159a67a384903684280482158d08ea7f0ec8f5348f0babd0",
  )
  assert_eq(h, want)
}

// ---- EIP-1559 (type 2) ----

test "viem cross-check: 1559 signed tx, sk=1, chain=1" {
  let bytes = @tx.sign_and_encode_1559(vt_make_1559(), vt_sk_1)
  let want = vt_h(
    "0x02f87301808459682f008506fc23ac008252089452908400098527886e0f7030069857d2e4169ee7880de0b6b3a764000080c080a0de42b7d1cf69db78a574e625704af0959f8f5335593e53ef59840ce1fd384bb5a04143c7c35a9d3fd204e5084e8196f543f662851e586ec419329a95cb23f2fba7",
  )
  assert_eq(bytes, want)
}

test "viem cross-check: 1559 tx hash, sk=1, chain=1" {
  let sig = @tx.sign_1559(vt_make_1559(), vt_sk_1)
  let h = @tx.hash_signed_1559(vt_make_1559(), sig)
  let want = vt_h(
    "0xcd38a50b9f085db8ba12ad9f7b1c1f94951a5a003a9b5e236b0f762ea145fbd4",
  )
  assert_eq(h, want)
}

test "viem cross-check: 1559 signed tx, sk=test, chain=1" {
  let bytes = @tx.sign_and_encode_1559(vt_make_1559(), vt_sk_test)
  let want = vt_h(
    "0x02f87301808459682f008506fc23ac008252089452908400098527886e0f7030069857d2e4169ee7880de0b6b3a764000080c001a0b0001b131c846d8a4d95b866304430dadbce0c9af2e2aa1c48dbf29ad99fbde9a029d9a714e4d1df87f55d76b849288495c9609a8ac09db6923dc15f35567fc14a",
  )
  assert_eq(bytes, want)
}

test "viem cross-check: 1559 tx hash, sk=test, chain=1" {
  let sig = @tx.sign_1559(vt_make_1559(), vt_sk_test)
  let h = @tx.hash_signed_1559(vt_make_1559(), sig)
  let want = vt_h(
    "0x8386319250dfce56396ea3b7b7b26dc25eaf192892fc7b88b3ffd1942f1a3935",
  )
  assert_eq(h, want)
}

// ---- viem-derived address sanity ----

test "viem cross-check: address for sk=test = 0xe471a8d4..." {
  let pk = @secp256k1.pubkey_from_sk(vt_sk_test)
  let xy = @secp256k1.pubkey_to_xy_bytes(pk)
  let want = vt_h("0xe471a8d4E306eEFA74ba35DF7500a4512AeB542C")
  match @address.from_pubkey_xy(xy) {
    Ok(addr) => assert_eq(addr, want)
    Err(_) => assert_true(false)
  }
}
